{
  "_format": "hh-sol-artifact-1",
  "contractName": "SynGovLogger",
  "sourceName": "contracts/SynGovLogger.sol",
  "abi": [
    {
      "inputs": [],
      "stateMutability": "nonpayable",
      "type": "constructor"
    },
    {
      "inputs": [
        {
          "internalType": "address",
          "name": "owner",
          "type": "address"
        }
      ],
      "name": "OwnableInvalidOwner",
      "type": "error"
    },
    {
      "inputs": [
        {
          "internalType": "address",
          "name": "account",
          "type": "address"
        }
      ],
      "name": "OwnableUnauthorizedAccount",
      "type": "error"
    },
    {
      "anonymous": false,
      "inputs": [
        {
          "indexed": true,
          "internalType": "address",
          "name": "previousOwner",
          "type": "address"
        },
        {
          "indexed": true,
          "internalType": "address",
          "name": "newOwner",
          "type": "address"
        }
      ],
      "name": "OwnershipTransferred",
      "type": "event"
    },
    {
      "anonymous": false,
      "inputs": [
        {
          "indexed": false,
          "internalType": "string",
          "name": "proposalId",
          "type": "string"
        },
        {
          "indexed": false,
          "internalType": "string",
          "name": "titleHash",
          "type": "string"
        },
        {
          "indexed": false,
          "internalType": "address",
          "name": "createdBy",
          "type": "address"
        },
        {
          "indexed": false,
          "internalType": "uint256",
          "name": "timestamp",
          "type": "uint256"
        }
      ],
      "name": "ProposalCreated",
      "type": "event"
    },
    {
      "anonymous": false,
      "inputs": [
        {
          "indexed": false,
          "internalType": "string",
          "name": "proposalId",
          "type": "string"
        },
        {
          "indexed": false,
          "internalType": "string",
          "name": "userIdHash",
          "type": "string"
        },
        {
          "indexed": false,
          "internalType": "string",
          "name": "voteType",
          "type": "string"
        },
        {
          "indexed": false,
          "internalType": "string",
          "name": "weightUsed",
          "type": "string"
        },
        {
          "indexed": false,
          "internalType": "uint256",
          "name": "timestamp",
          "type": "uint256"
        }
      ],
      "name": "VoteCast",
      "type": "event"
    },
    {
      "inputs": [
        {
          "internalType": "string",
          "name": "proposalId",
          "type": "string"
        },
        {
          "internalType": "string",
          "name": "titleHash",
          "type": "string"
        }
      ],
      "name": "logProposal",
      "outputs": [],
      "stateMutability": "nonpayable",
      "type": "function"
    },
    {
      "inputs": [
        {
          "internalType": "string",
          "name": "proposalId",
          "type": "string"
        },
        {
          "internalType": "string",
          "name": "userIdHash",
          "type": "string"
        },
        {
          "internalType": "string",
          "name": "voteType",
          "type": "string"
        },
        {
          "internalType": "string",
          "name": "weightUsed",
          "type": "string"
        }
      ],
      "name": "logVote",
      "outputs": [],
      "stateMutability": "nonpayable",
      "type": "function"
    },
    {
      "inputs": [],
      "name": "owner",
      "outputs": [
        {
          "internalType": "address",
          "name": "",
          "type": "address"
        }
      ],
      "stateMutability": "view",
      "type": "function"
    },
    {
      "inputs": [],
      "name": "renounceOwnership",
      "outputs": [],
      "stateMutability": "nonpayable",
      "type": "function"
    },
    {
      "inputs": [
        {
          "internalType": "address",
          "name": "newOwner",
          "type": "address"
        }
      ],
      "name": "transferOwnership",
      "outputs": [],
      "stateMutability": "nonpayable",
      "type": "function"
    }
  ],
  "bytecode": "0x608060405234801561001057600080fd5b5033600073ffffffffffffffffffffffffffffffffffffffff168173ffffffffffffffffffffffffffffffffffffffff16036100845760006040517f1e4fbdf700000000000000000000000000000000000000000000000000000000815260040161007b919061019e565b60405180910390fd5b6100938161009960201b60201c565b506101b9565b60008060009054906101000a900473ffffffffffffffffffffffffffffffffffffffff169050816000806101000a81548173ffffffffffffffffffffffffffffffffffffffff021916908373ffffffffffffffffffffffffffffffffffffffff1602179055508173ffffffffffffffffffffffffffffffffffffffff168173ffffffffffffffffffffffffffffffffffffffff167f8be0079c531659141344cd1fd0a4f28419497f9722a3daafe3b4186f6b6457e060405160405180910390a35050565b600073ffffffffffffffffffffffffffffffffffffffff82169050919050565b60006101888261015d565b9050919050565b6101988161017d565b82525050565b60006020820190506101b3600083018461018f565b92915050565b610872806101c86000396000f3fe608060405234801561001057600080fd5b50600436106100575760003560e01c8063402cfc321461005c578063715018a6146100785780638da5cb5b14610082578063c2620d4a146100a0578063f2fde38b146100bc575b600080fd5b610076600480360381019061007191906104de565b6100d8565b005b610080610125565b005b61008a610139565b60405161009791906105f6565b60405180910390f35b6100ba60048036038101906100b59190610611565b610162565b005b6100d660048036038101906100d191906106b5565b6101ab565b005b6100e0610231565b7fa9b400af1e89143236ea24e7afb23b28fa0a00744e4c246c4956b2e85199f8d1848484844260405161011795949392919061077a565b60405180910390a150505050565b61012d610231565b61013760006102b8565b565b60008060009054906101000a900473ffffffffffffffffffffffffffffffffffffffff16905090565b61016a610231565b7f623e457596f1f9cacc8f64776b011b982f4cab4a1843598fc6f25d060bdb21088282334260405161019f94939291906107e9565b60405180910390a15050565b6101b3610231565b600073ffffffffffffffffffffffffffffffffffffffff168173ffffffffffffffffffffffffffffffffffffffff16036102255760006040517f1e4fbdf700000000000000000000000000000000000000000000000000000000815260040161021c91906105f6565b60405180910390fd5b61022e816102b8565b50565b61023961037c565b73ffffffffffffffffffffffffffffffffffffffff16610257610139565b73ffffffffffffffffffffffffffffffffffffffff16146102b65761027a61037c565b6040517f118cdaa70000000000000000000000000000000000000000000000000000000081526004016102ad91906105f6565b60405180910390fd5b565b60008060009054906101000a900473ffffffffffffffffffffffffffffffffffffffff169050816000806101000a81548173ffffffffffffffffffffffffffffffffffffffff021916908373ffffffffffffffffffffffffffffffffffffffff1602179055508173ffffffffffffffffffffffffffffffffffffffff168173ffffffffffffffffffffffffffffffffffffffff167f8be0079c531659141344cd1fd0a4f28419497f9722a3daafe3b4186f6b6457e060405160405180910390a35050565b600033905090565b6000604051905090565b600080fd5b600080fd5b600080fd5b600080fd5b6000601f19601f8301169050919050565b7f4e487b7100000000000000000000000000000000000000000000000000000000600052604160045260246000fd5b6103eb826103a2565b810181811067ffffffffffffffff8211171561040a576104096103b3565b5b80604052505050565b600061041d610384565b905061042982826103e2565b919050565b600067ffffffffffffffff821115610449576104486103b3565b5b610452826103a2565b9050602081019050919050565b82818337600083830152505050565b600061048161047c8461042e565b610413565b90508281526020810184848401111561049d5761049c61039d565b5b6104a884828561045f565b509392505050565b600082601f8301126104c5576104c4610398565b5b81356104d584826020860161046e565b91505092915050565b600080600080608085870312156104f8576104f761038e565b5b600085013567ffffffffffffffff81111561051657610515610393565b5b610522878288016104b0565b945050602085013567ffffffffffffffff81111561054357610542610393565b5b61054f878288016104b0565b935050604085013567ffffffffffffffff8111156105705761056f610393565b5b61057c878288016104b0565b925050606085013567ffffffffffffffff81111561059d5761059c610393565b5b6105a9878288016104b0565b91505092959194509250565b600073ffffffffffffffffffffffffffffffffffffffff82169050919050565b60006105e0826105b5565b9050919050565b6105f0816105d5565b82525050565b600060208201905061060b60008301846105e7565b92915050565b600080604083850312156106285761062761038e565b5b600083013567ffffffffffffffff81111561064657610645610393565b5b610652858286016104b0565b925050602083013567ffffffffffffffff81111561067357610672610393565b5b61067f858286016104b0565b9150509250929050565b610692816105d5565b811461069d57600080fd5b50565b6000813590506106af81610689565b92915050565b6000602082840312156106cb576106ca61038e565b5b60006106d9848285016106a0565b91505092915050565b600081519050919050565b600082825260208201905092915050565b60005b8381101561071c578082015181840152602081019050610701565b60008484015250505050565b6000610733826106e2565b61073d81856106ed565b935061074d8185602086016106fe565b610756816103a2565b840191505092915050565b6000819050919050565b61077481610761565b82525050565b600060a08201905081810360008301526107948188610728565b905081810360208301526107a88187610728565b905081810360408301526107bc8186610728565b905081810360608301526107d08185610728565b90506107df608083018461076b565b9695505050505050565b600060808201905081810360008301526108038187610728565b905081810360208301526108178186610728565b905061082660408301856105e7565b610833606083018461076b565b9594505050505056fea264697066735822122057cd6d9343553152563b0b5177cdcde79d31d4adcea17fd079dd218606e64df664736f6c63430008140033",
  "linkReferences": {},
  "deployedLinkReferences": {}
}